{
  "contractName": "DappToken",
  "abi": [
    {
      "inputs": [],
      "payable": false,
      "stateMutability": "nonpayable",
      "type": "constructor"
    },
    {
      "constant": true,
      "inputs": [],
      "name": "totalSupply",
      "outputs": [
        {
          "internalType": "uint256",
          "name": "",
          "type": "uint256"
        }
      ],
      "payable": false,
      "stateMutability": "view",
      "type": "function"
    }
  ],
  "bytecode": "0x6080604052348015600f57600080fd5b50620f42406000819055506084806100286000396000f3fe6080604052348015600f57600080fd5b506004361060285760003560e01c806318160ddd14602d575b600080fd5b60336049565b6040518082815260200191505060405180910390f35b6000548156fea265627a7a723158205984f05285e870b229f1b8a6a164d91fec67bb6f16e359a74db044f91416e91c64736f6c63430005100032",
  "source": "pragma solidity >=0.4.21 <0.7.0;\n\n\n\ncontract DappToken {\n\n\t// constructor \n\t// set the token number of token\n\t// read the total number of token\n\tuint256 public totalSupply;\n\n  constructor() public {\n  \ttotalSupply = 1000000;\n    \n  }\n}\n",
  "sourcePath": "/home/stormbreaker/Music/making cryptocurrency/contracts/DappToken.sol",
  "compiler": {
    "name": "solc",
    "version": "0.5.16+commit.9c3226ce.Emscripten.clang"
  },
  "schemaVersion": "3.2.0",
  "updatedAt": "2020-07-03T02:06:03.098Z",
  "networkType": "ethereum",
  "devdoc": {
    "methods": {}
  },
  "userdoc": {
    "methods": {}
  }
}