{
  "contractName": "DappToken",
  "abi": [
    {
      "inputs": [
        {
          "internalType": "uint256",
          "name": "_initialSupply",
          "type": "uint256"
        }
      ],
      "payable": false,
      "stateMutability": "nonpayable",
      "type": "constructor"
    },
    {
      "constant": true,
      "inputs": [
        {
          "internalType": "address",
          "name": "",
          "type": "address"
        }
      ],
      "name": "balanceOf",
      "outputs": [
        {
          "internalType": "uint256",
          "name": "",
          "type": "uint256"
        }
      ],
      "payable": false,
      "stateMutability": "view",
      "type": "function"
    },
    {
      "constant": true,
      "inputs": [],
      "name": "name",
      "outputs": [
        {
          "internalType": "string",
          "name": "",
          "type": "string"
        }
      ],
      "payable": false,
      "stateMutability": "view",
      "type": "function"
    },
    {
      "constant": true,
      "inputs": [],
      "name": "standard",
      "outputs": [
        {
          "internalType": "string",
          "name": "",
          "type": "string"
        }
      ],
      "payable": false,
      "stateMutability": "view",
      "type": "function"
    },
    {
      "constant": true,
      "inputs": [],
      "name": "symbol",
      "outputs": [
        {
          "internalType": "string",
          "name": "",
          "type": "string"
        }
      ],
      "payable": false,
      "stateMutability": "view",
      "type": "function"
    },
    {
      "constant": true,
      "inputs": [],
      "name": "totalSupply",
      "outputs": [
        {
          "internalType": "uint256",
          "name": "",
          "type": "uint256"
        }
      ],
      "payable": false,
      "stateMutability": "view",
      "type": "function"
    },
    {
      "constant": false,
      "inputs": [
        {
          "internalType": "address",
          "name": "_to",
          "type": "address"
        },
        {
          "internalType": "uint256",
          "name": "_value",
          "type": "uint256"
        }
      ],
      "name": "transfer",
      "outputs": [
        {
          "internalType": "bool",
          "name": "success",
          "type": "bool"
        }
      ],
      "payable": false,
      "stateMutability": "nonpayable",
      "type": "function"
    }
  ],
  "bytecode": "0x60806040526040518060400160405280600a81526020017f4441707020546f6b656e000000000000000000000000000000000000000000008152506001908051906020019061004f929190610179565b506040518060400160405280600481526020017f44415050000000000000000000000000000000000000000000000000000000008152506002908051906020019061009b929190610179565b506040518060400160405280600f81526020017f4441707020746f6b656e2076312e300000000000000000000000000000000000815250600390805190602001906100e7929190610179565b503480156100f457600080fd5b506040516108143803806108148339818101604052602081101561011757600080fd5b810190808051906020019092919050505080600460003373ffffffffffffffffffffffffffffffffffffffff1673ffffffffffffffffffffffffffffffffffffffff16815260200190815260200160002081905550806000819055505061021e565b828054600181600116156101000203166002900490600052602060002090601f016020900481019282601f106101ba57805160ff19168380011785556101e8565b828001600101855582156101e8579182015b828111156101e75782518255916020019190600101906101cc565b5b5090506101f591906101f9565b5090565b61021b91905b808211156102175760008160009055506001016101ff565b5090565b90565b6105e78061022d6000396000f3fe608060405234801561001057600080fd5b50600436106100625760003560e01c806306fdde031461006757806318160ddd146100ea5780635a3b7e421461010857806370a082311461018b57806395d89b41146101e3578063a9059cbb14610266575b600080fd5b61006f6102cc565b6040518080602001828103825283818151815260200191508051906020019080838360005b838110156100af578082015181840152602081019050610094565b50505050905090810190601f1680156100dc5780820380516001836020036101000a031916815260200191505b509250505060405180910390f35b6100f261036a565b6040518082815260200191505060405180910390f35b610110610370565b6040518080602001828103825283818151815260200191508051906020019080838360005b83811015610150578082015181840152602081019050610135565b50505050905090810190601f16801561017d5780820380516001836020036101000a031916815260200191505b509250505060405180910390f35b6101cd600480360360208110156101a157600080fd5b81019080803573ffffffffffffffffffffffffffffffffffffffff16906020019092919050505061040e565b6040518082815260200191505060405180910390f35b6101eb610426565b6040518080602001828103825283818151815260200191508051906020019080838360005b8381101561022b578082015181840152602081019050610210565b50505050905090810190601f1680156102585780820380516001836020036101000a031916815260200191505b509250505060405180910390f35b6102b26004803603604081101561027c57600080fd5b81019080803573ffffffffffffffffffffffffffffffffffffffff169060200190929190803590602001909291905050506104c4565b604051808215151515815260200191505060405180910390f35b60018054600181600116156101000203166002900480601f0160208091040260200160405190810160405280929190818152602001828054600181600116156101000203166002900480156103625780601f1061033757610100808354040283529160200191610362565b820191906000526020600020905b81548152906001019060200180831161034557829003601f168201915b505050505081565b60005481565b60038054600181600116156101000203166002900480601f0160208091040260200160405190810160405280929190818152602001828054600181600116156101000203166002900480156104065780601f106103db57610100808354040283529160200191610406565b820191906000526020600020905b8154815290600101906020018083116103e957829003601f168201915b505050505081565b60046020528060005260406000206000915090505481565b60028054600181600116156101000203166002900480601f0160208091040260200160405190810160405280929190818152602001828054600181600116156101000203166002900480156104bc5780601f10610491576101008083540402835291602001916104bc565b820191906000526020600020905b81548152906001019060200180831161049f57829003601f168201915b505050505081565b600081600460003373ffffffffffffffffffffffffffffffffffffffff1673ffffffffffffffffffffffffffffffffffffffff16815260200190815260200160002054101561051257600080fd5b81600460003373ffffffffffffffffffffffffffffffffffffffff1673ffffffffffffffffffffffffffffffffffffffff1681526020019081526020016000206000828254039250508190555081600460008573ffffffffffffffffffffffffffffffffffffffff1673ffffffffffffffffffffffffffffffffffffffff168152602001908152602001600020600082825401925050819055509291505056fea265627a7a72315820bfb15ec7d03be6660feda76a5f26780a6a15fd39f95abacac6a496d5b4063f4564736f6c63430005100032",
  "source": "pragma solidity >=0.4.21 <0.7.0;\n\n\n\ncontract DappToken {\n\n\t// constructor \n\t// set the token number of token\n\t// read the total number of token\n\tuint256 public totalSupply;\n\tstring public name = 'DApp Token';\n\tstring public symbol = 'DAPP';\n\tstring public standard = 'DApp token v1.0';\n\n\tmapping (address => uint256) public balanceOf;\n\t\n\n  constructor(uint256 _initialSupply) public {\n  \tbalanceOf[msg.sender] = _initialSupply;\n  \ttotalSupply = _initialSupply;\n  }\n\n //transfer function   \n\nfunction transfer (address _to, uint256 _value) public returns(bool success) {\n\t//eception if amount is not enough\n\trequire(balanceOf[msg.sender] >= _value);\n\tbalanceOf[msg.sender] -= _value;\n\tbalanceOf[_to] += _value;\n\t//transfer event\n\t//retrun a boolean\n}\n\n\n\n}\n",
  "sourcePath": "/home/stormbreaker/Music/making cryptocurrency/contracts/DappToken.sol",
  "compiler": {
    "name": "solc",
    "version": "0.5.16+commit.9c3226ce.Emscripten.clang"
  },
  "schemaVersion": "3.2.0",
  "updatedAt": "2020-07-04T22:09:05.284Z",
  "devdoc": {
    "methods": {}
  },
  "userdoc": {
    "methods": {}
  }
}